{
  "_format": "hh-sol-artifact-1",
  "contractName": "WagerPoolSingleEntry",
  "sourceName": "contracts/WagerPoolSingleEntry.sol",
  "abi": [
    {
      "inputs": [
        {
          "internalType": "address",
          "name": "_house1",
          "type": "address"
        },
        {
          "internalType": "address",
          "name": "_house2",
          "type": "address"
        }
      ],
      "stateMutability": "nonpayable",
      "type": "constructor"
    },
    {
      "inputs": [],
      "name": "ReentrancyGuardReentrantCall",
      "type": "error"
    },
    {
      "anonymous": false,
      "inputs": [
        {
          "indexed": true,
          "internalType": "address",
          "name": "player",
          "type": "address"
        },
        {
          "indexed": false,
          "internalType": "uint256",
          "name": "amount",
          "type": "uint256"
        }
      ],
      "name": "Deposit",
      "type": "event"
    },
    {
      "anonymous": false,
      "inputs": [
        {
          "indexed": true,
          "internalType": "address",
          "name": "to",
          "type": "address"
        },
        {
          "indexed": false,
          "internalType": "uint256",
          "name": "amount",
          "type": "uint256"
        }
      ],
      "name": "Payout",
      "type": "event"
    },
    {
      "inputs": [],
      "name": "ENTRY_FEE",
      "outputs": [
        {
          "internalType": "uint256",
          "name": "",
          "type": "uint256"
        }
      ],
      "stateMutability": "view",
      "type": "function"
    },
    {
      "inputs": [
        {
          "internalType": "uint256",
          "name": "",
          "type": "uint256"
        }
      ],
      "name": "currentPlayers",
      "outputs": [
        {
          "internalType": "address",
          "name": "",
          "type": "address"
        }
      ],
      "stateMutability": "view",
      "type": "function"
    },
    {
      "inputs": [
        {
          "internalType": "address",
          "name": "",
          "type": "address"
        }
      ],
      "name": "deposits",
      "outputs": [
        {
          "internalType": "uint256",
          "name": "",
          "type": "uint256"
        }
      ],
      "stateMutability": "view",
      "type": "function"
    },
    {
      "inputs": [
        {
          "internalType": "uint256",
          "name": "amount",
          "type": "uint256"
        }
      ],
      "name": "emergencyWithdraw",
      "outputs": [],
      "stateMutability": "nonpayable",
      "type": "function"
    },
    {
      "inputs": [],
      "name": "getCurrentPlayers",
      "outputs": [
        {
          "internalType": "address[]",
          "name": "",
          "type": "address[]"
        }
      ],
      "stateMutability": "view",
      "type": "function"
    },
    {
      "inputs": [
        {
          "internalType": "address",
          "name": "player",
          "type": "address"
        }
      ],
      "name": "getPlayerDeposit",
      "outputs": [
        {
          "internalType": "uint256",
          "name": "",
          "type": "uint256"
        }
      ],
      "stateMutability": "view",
      "type": "function"
    },
    {
      "inputs": [
        {
          "internalType": "address",
          "name": "",
          "type": "address"
        }
      ],
      "name": "hasPaid",
      "outputs": [
        {
          "internalType": "bool",
          "name": "",
          "type": "bool"
        }
      ],
      "stateMutability": "view",
      "type": "function"
    },
    {
      "inputs": [],
      "name": "houseWallet1",
      "outputs": [
        {
          "internalType": "address",
          "name": "",
          "type": "address"
        }
      ],
      "stateMutability": "view",
      "type": "function"
    },
    {
      "inputs": [],
      "name": "houseWallet2",
      "outputs": [
        {
          "internalType": "address",
          "name": "",
          "type": "address"
        }
      ],
      "stateMutability": "view",
      "type": "function"
    },
    {
      "inputs": [],
      "name": "owner",
      "outputs": [
        {
          "internalType": "address",
          "name": "",
          "type": "address"
        }
      ],
      "stateMutability": "view",
      "type": "function"
    },
    {
      "inputs": [
        {
          "internalType": "uint256",
          "name": "amount1",
          "type": "uint256"
        },
        {
          "internalType": "uint256",
          "name": "amount2",
          "type": "uint256"
        }
      ],
      "name": "payHouse",
      "outputs": [],
      "stateMutability": "nonpayable",
      "type": "function"
    },
    {
      "inputs": [
        {
          "internalType": "address[]",
          "name": "topPlayers",
          "type": "address[]"
        },
        {
          "internalType": "uint256[]",
          "name": "amounts",
          "type": "uint256[]"
        }
      ],
      "name": "payPlayers",
      "outputs": [],
      "stateMutability": "nonpayable",
      "type": "function"
    },
    {
      "inputs": [],
      "name": "poolBalance",
      "outputs": [
        {
          "internalType": "uint256",
          "name": "",
          "type": "uint256"
        }
      ],
      "stateMutability": "view",
      "type": "function"
    },
    {
      "inputs": [],
      "name": "resetPayments",
      "outputs": [],
      "stateMutability": "nonpayable",
      "type": "function"
    },
    {
      "inputs": [
        {
          "internalType": "address",
          "name": "_w1",
          "type": "address"
        },
        {
          "internalType": "address",
          "name": "_w2",
          "type": "address"
        }
      ],
      "name": "setHouseWallets",
      "outputs": [],
      "stateMutability": "nonpayable",
      "type": "function"
    },
    {
      "stateMutability": "payable",
      "type": "receive"
    }
  ],
  "bytecode": "0x608060405234801561001057600080fd5b50604051611e0b380380611e0b83398181016040528101906100329190610167565b600160008190555033600160006101000a81548173ffffffffffffffffffffffffffffffffffffffff021916908373ffffffffffffffffffffffffffffffffffffffff16021790555081600260006101000a81548173ffffffffffffffffffffffffffffffffffffffff021916908373ffffffffffffffffffffffffffffffffffffffff16021790555080600360006101000a81548173ffffffffffffffffffffffffffffffffffffffff021916908373ffffffffffffffffffffffffffffffffffffffff16021790555050506101a7565b600080fd5b600073ffffffffffffffffffffffffffffffffffffffff82169050919050565b600061013482610109565b9050919050565b61014481610129565b811461014f57600080fd5b50565b6000815190506101618161013b565b92915050565b6000806040838503121561017e5761017d610104565b5b600061018c85828601610152565b925050602061019d85828601610152565b9150509250929050565b611c55806101b66000396000f3fe6080604052600436106100ec5760003560e01c80638da5cb5b1161008a578063d75a45db11610059578063d75a45db14610535578063f6d361cc1461055e578063fbf47a9a14610589578063fc7e286d146105c65761034d565b80638da5cb5b1461048b57806396365d44146104b6578063a06510b8146104e1578063c98807aa1461050c5761034d565b80635312ea8e116100c65780635312ea8e146103bd57806355e60992146103e6578063703afc87146104115780637ab21aea1461044e5761034d565b806302cac05c146103525780630f3b73b11461037d57806348dd7cb1146103945761034d565b3661034d57655af3107a40003414610139576040517f08c379a00000000000000000000000000000000000000000000000000000000081526004016101309061134f565b60405180910390fd5b61014233610603565b610181576040517f08c379a0000000000000000000000000000000000000000000000000000000008152600401610178906113e1565b60405180910390fd5b34600560003373ffffffffffffffffffffffffffffffffffffffff1673ffffffffffffffffffffffffffffffffffffffff16815260200190815260200160002060008282546101d0919061143a565b9250508190555034600460008282546101e9919061143a565b92505081905550600660003373ffffffffffffffffffffffffffffffffffffffff1673ffffffffffffffffffffffffffffffffffffffff16815260200190815260200160002060009054906101000a900460ff166102fd576007339080600181540180825580915050600190039060005260206000200160009091909190916101000a81548173ffffffffffffffffffffffffffffffffffffffff021916908373ffffffffffffffffffffffffffffffffffffffff1602179055506001600660003373ffffffffffffffffffffffffffffffffffffffff1673ffffffffffffffffffffffffffffffffffffffff16815260200190815260200160002060006101000a81548160ff0219169083151502179055505b3373ffffffffffffffffffffffffffffffffffffffff167fe1fffcc4923d04b559f4d29a8bfc6cda04eb5b0d3c460751c2402c5c5cc9109c34604051610343919061147d565b60405180910390a2005b600080fd5b34801561035e57600080fd5b5061036761067a565b6040516103749190611588565b60405180910390f35b34801561038957600080fd5b50610392610708565b005b3480156103a057600080fd5b506103bb60048036038101906103b6919061166f565b6108df565b005b3480156103c957600080fd5b506103e460048036038101906103df919061171c565b610b96565b005b3480156103f257600080fd5b506103fb610d56565b6040516104089190611758565b60405180910390f35b34801561041d57600080fd5b506104386004803603810190610433919061171c565b610d7c565b6040516104459190611758565b60405180910390f35b34801561045a57600080fd5b506104756004803603810190610470919061179f565b610dbb565b604051610482919061147d565b60405180910390f35b34801561049757600080fd5b506104a0610e04565b6040516104ad9190611758565b60405180910390f35b3480156104c257600080fd5b506104cb610e2a565b6040516104d8919061147d565b60405180910390f35b3480156104ed57600080fd5b506104f6610e30565b6040516105039190611758565b60405180910390f35b34801561051857600080fd5b50610533600480360381019061052e91906117cc565b610e56565b005b34801561054157600080fd5b5061055c6004803603810190610557919061180c565b610f6c565b005b34801561056a57600080fd5b50610573611222565b604051610580919061147d565b60405180910390f35b34801561059557600080fd5b506105b060048036038101906105ab919061179f565b61122c565b6040516105bd9190611867565b60405180910390f35b3480156105d257600080fd5b506105ed60048036038101906105e8919061179f565b61124c565b6040516105fa919061147d565b60405180910390f35b6000808273ffffffffffffffffffffffffffffffffffffffff16600060405161062b906118b3565b60006040518083038185875af1925050503d8060008114610668576040519150601f19603f3d011682016040523d82523d6000602084013e61066d565b606091505b5050905080915050919050565b606060078054806020026020016040519081016040528092919081815260200182805480156106fe57602002820191906000526020600020905b8160009054906101000a900473ffffffffffffffffffffffffffffffffffffffff1673ffffffffffffffffffffffffffffffffffffffff16815260200190600101908083116106b4575b5050505050905090565b600160009054906101000a900473ffffffffffffffffffffffffffffffffffffffff1673ffffffffffffffffffffffffffffffffffffffff163373ffffffffffffffffffffffffffffffffffffffff1614610798576040517f08c379a000000000000000000000000000000000000000000000000000000000815260040161078f90611914565b60405180910390fd5b60005b6007805490508110156108ce57600060066000600784815481106107c2576107c1611934565b5b9060005260206000200160009054906101000a900473ffffffffffffffffffffffffffffffffffffffff1673ffffffffffffffffffffffffffffffffffffffff1673ffffffffffffffffffffffffffffffffffffffff16815260200190815260200160002060006101000a81548160ff0219169083151502179055506000600560006007848154811061085857610857611934565b5b9060005260206000200160009054906101000a900473ffffffffffffffffffffffffffffffffffffffff1673ffffffffffffffffffffffffffffffffffffffff1673ffffffffffffffffffffffffffffffffffffffff16815260200190815260200160002081905550808060010191505061079b565b50600760006108dd91906112b4565b565b600160009054906101000a900473ffffffffffffffffffffffffffffffffffffffff1673ffffffffffffffffffffffffffffffffffffffff163373ffffffffffffffffffffffffffffffffffffffff161461096f576040517f08c379a000000000000000000000000000000000000000000000000000000000815260040161096690611914565b60405180910390fd5b610977611264565b8181905084849050146109bf576040517f08c379a00000000000000000000000000000000000000000000000000000000081526004016109b6906119af565b60405180910390fd5b60005b84849050811015610b87578282828181106109e0576109df611934565b5b90506020020135600460008282546109f891906119cf565b92505081905550848482818110610a1257610a11611934565b5b9050602002016020810190610a27919061179f565b73ffffffffffffffffffffffffffffffffffffffff167f5afeca38b2064c23a692c4cf353015d80ab3ecc417b4f893f372690c11fbd9a6848484818110610a7157610a70611934565b5b90506020020135604051610a85919061147d565b60405180910390a26000858583818110610aa257610aa1611934565b5b9050602002016020810190610ab7919061179f565b73ffffffffffffffffffffffffffffffffffffffff16848484818110610ae057610adf611934565b5b90506020020135604051610af3906118b3565b60006040518083038185875af1925050503d8060008114610b30576040519150601f19603f3d011682016040523d82523d6000602084013e610b35565b606091505b5050905080610b79576040517f08c379a0000000000000000000000000000000000000000000000000000000008152600401610b7090611a4f565b60405180910390fd5b5080806001019150506109c2565b50610b906112aa565b50505050565b600160009054906101000a900473ffffffffffffffffffffffffffffffffffffffff1673ffffffffffffffffffffffffffffffffffffffff163373ffffffffffffffffffffffffffffffffffffffff1614610c26576040517f08c379a0000000000000000000000000000000000000000000000000000000008152600401610c1d90611914565b60405180910390fd5b600454811115610c6b576040517f08c379a0000000000000000000000000000000000000000000000000000000008152600401610c6290611abb565b60405180910390fd5b8060046000828254610c7d91906119cf565b925050819055506000600160009054906101000a900473ffffffffffffffffffffffffffffffffffffffff1673ffffffffffffffffffffffffffffffffffffffff1682604051610ccc906118b3565b60006040518083038185875af1925050503d8060008114610d09576040519150601f19603f3d011682016040523d82523d6000602084013e610d0e565b606091505b5050905080610d52576040517f08c379a0000000000000000000000000000000000000000000000000000000008152600401610d4990611b27565b60405180910390fd5b5050565b600360009054906101000a900473ffffffffffffffffffffffffffffffffffffffff1681565b60078181548110610d8c57600080fd5b906000526020600020016000915054906101000a900473ffffffffffffffffffffffffffffffffffffffff1681565b6000600560008373ffffffffffffffffffffffffffffffffffffffff1673ffffffffffffffffffffffffffffffffffffffff168152602001908152602001600020549050919050565b600160009054906101000a900473ffffffffffffffffffffffffffffffffffffffff1681565b60045481565b600260009054906101000a900473ffffffffffffffffffffffffffffffffffffffff1681565b600160009054906101000a900473ffffffffffffffffffffffffffffffffffffffff1673ffffffffffffffffffffffffffffffffffffffff163373ffffffffffffffffffffffffffffffffffffffff1614610ee6576040517f08c379a0000000000000000000000000000000000000000000000000000000008152600401610edd90611914565b60405180910390fd5b81600260006101000a81548173ffffffffffffffffffffffffffffffffffffffff021916908373ffffffffffffffffffffffffffffffffffffffff16021790555080600360006101000a81548173ffffffffffffffffffffffffffffffffffffffff021916908373ffffffffffffffffffffffffffffffffffffffff1602179055505050565b600160009054906101000a900473ffffffffffffffffffffffffffffffffffffffff1673ffffffffffffffffffffffffffffffffffffffff163373ffffffffffffffffffffffffffffffffffffffff1614610ffc576040517f08c379a0000000000000000000000000000000000000000000000000000000008152600401610ff390611914565b60405180910390fd5b611004611264565b6004548183611013919061143a565b1115611054576040517f08c379a000000000000000000000000000000000000000000000000000000000815260040161104b90611abb565b60405180910390fd5b8082611060919061143a565b6004600082825461107191906119cf565b925050819055506000600260009054906101000a900473ffffffffffffffffffffffffffffffffffffffff1673ffffffffffffffffffffffffffffffffffffffff16836040516110c0906118b3565b60006040518083038185875af1925050503d80600081146110fd576040519150601f19603f3d011682016040523d82523d6000602084013e611102565b606091505b5050905080611146576040517f08c379a000000000000000000000000000000000000000000000000000000000815260040161113d90611b93565b60405180910390fd5b6000600360009054906101000a900473ffffffffffffffffffffffffffffffffffffffff1673ffffffffffffffffffffffffffffffffffffffff168360405161118e906118b3565b60006040518083038185875af1925050503d80600081146111cb576040519150601f19603f3d011682016040523d82523d6000602084013e6111d0565b606091505b5050905080611214576040517f08c379a000000000000000000000000000000000000000000000000000000000815260040161120b90611bff565b60405180910390fd5b505061121e6112aa565b5050565b655af3107a400081565b60066020528060005260406000206000915054906101000a900460ff1681565b60056020528060005260406000206000915090505481565b6002600054036112a0576040517f3ee5aeb500000000000000000000000000000000000000000000000000000000815260040160405180910390fd5b6002600081905550565b6001600081905550565b50805460008255906000526020600020908101906112d291906112d5565b50565b5b808211156112ee5760008160009055506001016112d6565b5090565b600082825260208201905092915050565b7f4d7573742073656e642065786163746c792074686520656e7472792066656500600082015250565b6000611339601f836112f2565b915061134482611303565b602082019050919050565b600060208201905081810360008301526113688161132c565b9050919050565b7f53656e64657220616464726573732063616e6e6f74207265636569766520455460008201527f4800000000000000000000000000000000000000000000000000000000000000602082015250565b60006113cb6021836112f2565b91506113d68261136f565b604082019050919050565b600060208201905081810360008301526113fa816113be565b9050919050565b6000819050919050565b7f4e487b7100000000000000000000000000000000000000000000000000000000600052601160045260246000fd5b600061144582611401565b915061145083611401565b92508282019050808211156114685761146761140b565b5b92915050565b61147781611401565b82525050565b6000602082019050611492600083018461146e565b92915050565b600081519050919050565b600082825260208201905092915050565b6000819050602082019050919050565b600073ffffffffffffffffffffffffffffffffffffffff82169050919050565b60006114ef826114c4565b9050919050565b6114ff816114e4565b82525050565b600061151183836114f6565b60208301905092915050565b6000602082019050919050565b600061153582611498565b61153f81856114a3565b935061154a836114b4565b8060005b8381101561157b5781516115628882611505565b975061156d8361151d565b92505060018101905061154e565b5085935050505092915050565b600060208201905081810360008301526115a2818461152a565b905092915050565b600080fd5b600080fd5b600080fd5b600080fd5b600080fd5b60008083601f8401126115d9576115d86115b4565b5b8235905067ffffffffffffffff8111156115f6576115f56115b9565b5b602083019150836020820283011115611612576116116115be565b5b9250929050565b60008083601f84011261162f5761162e6115b4565b5b8235905067ffffffffffffffff81111561164c5761164b6115b9565b5b602083019150836020820283011115611668576116676115be565b5b9250929050565b60008060008060408587031215611689576116886115aa565b5b600085013567ffffffffffffffff8111156116a7576116a66115af565b5b6116b3878288016115c3565b9450945050602085013567ffffffffffffffff8111156116d6576116d56115af565b5b6116e287828801611619565b925092505092959194509250565b6116f981611401565b811461170457600080fd5b50565b600081359050611716816116f0565b92915050565b600060208284031215611732576117316115aa565b5b600061174084828501611707565b91505092915050565b611752816114e4565b82525050565b600060208201905061176d6000830184611749565b92915050565b61177c816114e4565b811461178757600080fd5b50565b60008135905061179981611773565b92915050565b6000602082840312156117b5576117b46115aa565b5b60006117c38482850161178a565b91505092915050565b600080604083850312156117e3576117e26115aa565b5b60006117f18582860161178a565b92505060206118028582860161178a565b9150509250929050565b60008060408385031215611823576118226115aa565b5b600061183185828601611707565b925050602061184285828601611707565b9150509250929050565b60008115159050919050565b6118618161184c565b82525050565b600060208201905061187c6000830184611858565b92915050565b600081905092915050565b50565b600061189d600083611882565b91506118a88261188d565b600082019050919050565b60006118be82611890565b9150819050919050565b7f4f6e6c79206f776e657200000000000000000000000000000000000000000000600082015250565b60006118fe600a836112f2565b9150611909826118c8565b602082019050919050565b6000602082019050818103600083015261192d816118f1565b9050919050565b7f4e487b7100000000000000000000000000000000000000000000000000000000600052603260045260246000fd5b7f4d69736d61746368656420617272617973000000000000000000000000000000600082015250565b60006119996011836112f2565b91506119a482611963565b602082019050919050565b600060208201905081810360008301526119c88161198c565b9050919050565b60006119da82611401565b91506119e583611401565b92508282039050818111156119fd576119fc61140b565b5b92915050565b7f4661696c656420746f2073656e64204554480000000000000000000000000000600082015250565b6000611a396012836112f2565b9150611a4482611a03565b602082019050919050565b60006020820190508181036000830152611a6881611a2c565b9050919050565b7f496e73756666696369656e7420706f6f6c2062616c616e636500000000000000600082015250565b6000611aa56019836112f2565b9150611ab082611a6f565b602082019050919050565b60006020820190508181036000830152611ad481611a98565b9050919050565b7f4661696c656420746f2077697468647261772045544800000000000000000000600082015250565b6000611b116016836112f2565b9150611b1c82611adb565b602082019050919050565b60006020820190508181036000830152611b4081611b04565b9050919050565b7f4661696c656420746f2070617920686f75736557616c6c657431000000000000600082015250565b6000611b7d601a836112f2565b9150611b8882611b47565b602082019050919050565b60006020820190508181036000830152611bac81611b70565b9050919050565b7f4661696c656420746f2070617920686f75736557616c6c657432000000000000600082015250565b6000611be9601a836112f2565b9150611bf482611bb3565b602082019050919050565b60006020820190508181036000830152611c1881611bdc565b905091905056fea264697066735822122066463808ea45fc934346d3750e7bd426cdfd47594ac7162f14bd8a9d67112a0264736f6c634300081c0033",
  "linkReferences": {},
  "deployedLinkReferences": {}
}